{
  "contractName": "Lottery",
  "abi": [
    {
      "inputs": [],
      "payable": false,
      "stateMutability": "nonpayable",
      "type": "constructor"
    },
    {
      "constant": true,
      "inputs": [],
      "name": "GAME_LENGTH",
      "outputs": [
        {
          "internalType": "uint256",
          "name": "",
          "type": "uint256"
        }
      ],
      "payable": false,
      "stateMutability": "view",
      "type": "function"
    },
    {
      "constant": true,
      "inputs": [],
      "name": "MAX_AMOUNT_TICKETS",
      "outputs": [
        {
          "internalType": "uint256",
          "name": "",
          "type": "uint256"
        }
      ],
      "payable": false,
      "stateMutability": "view",
      "type": "function"
    },
    {
      "constant": true,
      "inputs": [],
      "name": "MAX_NUMBER",
      "outputs": [
        {
          "internalType": "uint256",
          "name": "",
          "type": "uint256"
        }
      ],
      "payable": false,
      "stateMutability": "view",
      "type": "function"
    },
    {
      "constant": true,
      "inputs": [],
      "name": "MAX_PARTICIPANTS",
      "outputs": [
        {
          "internalType": "uint256",
          "name": "",
          "type": "uint256"
        }
      ],
      "payable": false,
      "stateMutability": "view",
      "type": "function"
    },
    {
      "constant": true,
      "inputs": [],
      "name": "MIN_NUMBER",
      "outputs": [
        {
          "internalType": "uint256",
          "name": "",
          "type": "uint256"
        }
      ],
      "payable": false,
      "stateMutability": "view",
      "type": "function"
    },
    {
      "constant": true,
      "inputs": [],
      "name": "NUMBERS_PER_TICKET",
      "outputs": [
        {
          "internalType": "uint256",
          "name": "",
          "type": "uint256"
        }
      ],
      "payable": false,
      "stateMutability": "view",
      "type": "function"
    },
    {
      "constant": true,
      "inputs": [],
      "name": "REFUND_AMOUNT",
      "outputs": [
        {
          "internalType": "uint256",
          "name": "",
          "type": "uint256"
        }
      ],
      "payable": false,
      "stateMutability": "view",
      "type": "function"
    },
    {
      "constant": true,
      "inputs": [],
      "name": "TICKET_PRICE",
      "outputs": [
        {
          "internalType": "uint256",
          "name": "",
          "type": "uint256"
        }
      ],
      "payable": false,
      "stateMutability": "view",
      "type": "function"
    },
    {
      "constant": true,
      "inputs": [],
      "name": "currentGame",
      "outputs": [
        {
          "internalType": "uint256",
          "name": "startBlock",
          "type": "uint256"
        },
        {
          "internalType": "uint256",
          "name": "endBlock",
          "type": "uint256"
        },
        {
          "internalType": "uint256",
          "name": "drawBlock",
          "type": "uint256"
        },
        {
          "internalType": "uint256",
          "name": "numberOfParticipants",
          "type": "uint256"
        },
        {
          "internalType": "uint256",
          "name": "numberOfWinners",
          "type": "uint256"
        },
        {
          "internalType": "uint256",
          "name": "jackpot",
          "type": "uint256"
        },
        {
          "internalType": "address",
          "name": "resolver",
          "type": "address"
        }
      ],
      "payable": false,
      "stateMutability": "view",
      "type": "function"
    },
    {
      "constant": true,
      "inputs": [
        {
          "internalType": "uint256",
          "name": "",
          "type": "uint256"
        }
      ],
      "name": "finishedGames",
      "outputs": [
        {
          "internalType": "uint256",
          "name": "startBlock",
          "type": "uint256"
        },
        {
          "internalType": "uint256",
          "name": "endBlock",
          "type": "uint256"
        },
        {
          "internalType": "uint256",
          "name": "drawBlock",
          "type": "uint256"
        },
        {
          "internalType": "uint256",
          "name": "numberOfParticipants",
          "type": "uint256"
        },
        {
          "internalType": "uint256",
          "name": "numberOfWinners",
          "type": "uint256"
        },
        {
          "internalType": "uint256",
          "name": "jackpot",
          "type": "uint256"
        },
        {
          "internalType": "address",
          "name": "resolver",
          "type": "address"
        }
      ],
      "payable": false,
      "stateMutability": "view",
      "type": "function"
    },
    {
      "constant": false,
      "inputs": [
        {
          "internalType": "uint256[]",
          "name": "_numbers",
          "type": "uint256[]"
        }
      ],
      "name": "buyTicket",
      "outputs": [],
      "payable": true,
      "stateMutability": "payable",
      "type": "function"
    },
    {
      "constant": false,
      "inputs": [],
      "name": "endGame",
      "outputs": [],
      "payable": false,
      "stateMutability": "nonpayable",
      "type": "function"
    },
    {
      "constant": true,
      "inputs": [],
      "name": "getMyTicketCountOfCurrentGame",
      "outputs": [
        {
          "internalType": "uint256",
          "name": "",
          "type": "uint256"
        }
      ],
      "payable": false,
      "stateMutability": "view",
      "type": "function"
    },
    {
      "constant": true,
      "inputs": [
        {
          "internalType": "uint256",
          "name": "_ticketIndex",
          "type": "uint256"
        }
      ],
      "name": "getMyTicketNumbersOfCurrentGame",
      "outputs": [
        {
          "internalType": "uint256[]",
          "name": "",
          "type": "uint256[]"
        }
      ],
      "payable": false,
      "stateMutability": "view",
      "type": "function"
    },
    {
      "constant": true,
      "inputs": [],
      "name": "getJackpot",
      "outputs": [
        {
          "internalType": "uint256",
          "name": "",
          "type": "uint256"
        }
      ],
      "payable": false,
      "stateMutability": "view",
      "type": "function"
    },
    {
      "constant": true,
      "inputs": [],
      "name": "getNumberOfFinishedGames",
      "outputs": [
        {
          "internalType": "uint256",
          "name": "",
          "type": "uint256"
        }
      ],
      "payable": false,
      "stateMutability": "view",
      "type": "function"
    },
    {
      "constant": true,
      "inputs": [
        {
          "internalType": "uint256",
          "name": "_gameIndex",
          "type": "uint256"
        }
      ],
      "name": "getParticipants",
      "outputs": [
        {
          "internalType": "address[]",
          "name": "_participantsAddr",
          "type": "address[]"
        }
      ],
      "payable": false,
      "stateMutability": "view",
      "type": "function"
    },
    {
      "constant": true,
      "inputs": [
        {
          "internalType": "uint256",
          "name": "_gameIndex",
          "type": "uint256"
        }
      ],
      "name": "getWinners",
      "outputs": [
        {
          "internalType": "address[]",
          "name": "_winners",
          "type": "address[]"
        }
      ],
      "payable": false,
      "stateMutability": "view",
      "type": "function"
    },
    {
      "constant": true,
      "inputs": [
        {
          "internalType": "uint256",
          "name": "_gameIndex",
          "type": "uint256"
        },
        {
          "internalType": "address",
          "name": "_address",
          "type": "address"
        }
      ],
      "name": "getTicketCount",
      "outputs": [
        {
          "internalType": "uint256",
          "name": "",
          "type": "uint256"
        }
      ],
      "payable": false,
      "stateMutability": "view",
      "type": "function"
    },
    {
      "constant": true,
      "inputs": [
        {
          "internalType": "uint256",
          "name": "_gameIndex",
          "type": "uint256"
        },
        {
          "internalType": "uint256",
          "name": "_ticketIndex",
          "type": "uint256"
        },
        {
          "internalType": "address",
          "name": "_address",
          "type": "address"
        }
      ],
      "name": "getTicketNumbers",
      "outputs": [
        {
          "internalType": "uint256[]",
          "name": "",
          "type": "uint256[]"
        }
      ],
      "payable": false,
      "stateMutability": "view",
      "type": "function"
    },
    {
      "constant": true,
      "inputs": [],
      "name": "getCurrentBlock",
      "outputs": [
        {
          "internalType": "uint256",
          "name": "",
          "type": "uint256"
        }
      ],
      "payable": false,
      "stateMutability": "view",
      "type": "function"
    },
    {
      "constant": true,
      "inputs": [],
      "name": "hasGameStarted",
      "outputs": [
        {
          "internalType": "bool",
          "name": "",
          "type": "bool"
        }
      ],
      "payable": false,
      "stateMutability": "view",
      "type": "function"
    },
    {
      "constant": true,
      "inputs": [],
      "name": "hasGameEnded",
      "outputs": [
        {
          "internalType": "bool",
          "name": "",
          "type": "bool"
        }
      ],
      "payable": false,
      "stateMutability": "view",
      "type": "function"
    },
    {
      "constant": true,
      "inputs": [],
      "name": "isGameOngoing",
      "outputs": [
        {
          "internalType": "bool",
          "name": "",
          "type": "bool"
        }
      ],
      "payable": false,
      "stateMutability": "view",
      "type": "function"
    },
    {
      "constant": true,
      "inputs": [],
      "name": "isNumberDrawable",
      "outputs": [
        {
          "internalType": "bool",
          "name": "",
          "type": "bool"
        }
      ],
      "payable": false,
      "stateMutability": "view",
      "type": "function"
    },
    {
      "constant": true,
      "inputs": [],
      "name": "skipBlock",
      "outputs": [],
      "payable": false,
      "stateMutability": "pure",
      "type": "function"
    },
    {
      "constant": true,
      "inputs": [
        {
          "internalType": "uint256",
          "name": "_gameIndex",
          "type": "uint256"
        }
      ],
      "name": "getLuckyNumbers",
      "outputs": [
        {
          "internalType": "uint256[]",
          "name": "",
          "type": "uint256[]"
        }
      ],
      "payable": false,
      "stateMutability": "view",
      "type": "function"
    }
  ],
  "bytecode": "0x60806040526000600c553480156200001657600080fd5b506200002960036200014160201b60201c565b6001600082015181600001556020820151816001015560408201518160020155606082015181600301908051906020019062000067929190620001be565b506080820151816006015560a0820151816007015560c0820151816008015560e08201518160090160006101000a81548173ffffffffffffffffffffffffffffffffffffffff021916908373ffffffffffffffffffffffffffffffffffffffff160217905550905050604051620000de9062000210565b604051809103906000f080158015620000fb573d6000803e3d6000fd5b506000806101000a81548173ffffffffffffffffffffffffffffffffffffffff021916908373ffffffffffffffffffffffffffffffffffffffff160217905550620002a0565b6200014b6200021d565b6060620001576200021d565b60405180610100016040528043815260200185430181526020016002864301018152602001838152602001600081526020016000815260200160008152602001600073ffffffffffffffffffffffffffffffffffffffff1681525090508092505050919050565b828054828255906000526020600020908101928215620001fd579160200282015b82811115620001fc578251825591602001919060010190620001df565b5b5090506200020c919062000278565b5090565b60fe80620024c983390190565b60405180610100016040528060008152602001600081526020016000815260200160608152602001600081526020016000815260200160008152602001600073ffffffffffffffffffffffffffffffffffffffff1681525090565b6200029d91905b80821115620002995760008160009055506001016200027f565b5090565b90565b61221980620002b06000396000f3fe60806040526004361061019c5760003560e01c806390f0324b116100ec578063dd8ab8f91161008a578063f930262011610064578063f9302620146108b0578063fab14e8e146108db578063fea9b57214610906578063fec19e92146109315761019c565b8063dd8ab8f91461082b578063dfbe7c6d14610856578063f3baf070146108855761019c565b8063a69f269c116100c6578063a69f269c14610650578063c1e3bd3e146106e0578063d1df835b14610770578063d51d93c31461079b5761019c565b806390f0324b146105cf5780639329066c146105fa57806395d91333146106255761019c565b8063672d5d3b116101595780636b1426a4116101335780636b1426a4146104415780636cbc2ded146104d1578063716cac96146104e85780638f153972146105a05761019c565b8063672d5d3b146102ed5780636a14dffd146103185780636af3bb3f146103875761019c565b8063197b29c8146101a15780631a95f15f146101d057806335348184146101fb5780633f5054251461022657806360b663bb14610255578063660982d9146102d6575b600080fd5b3480156101ad57600080fd5b506101b66109d6565b604051808215151515815260200191505060405180910390f35b3480156101dc57600080fd5b506101e56109e6565b6040518082815260200191505060405180910390f35b34801561020757600080fd5b506102106109f2565b6040518082815260200191505060405180910390f35b34801561023257600080fd5b5061023b6109fc565b604051808215151515815260200191505060405180910390f35b34801561026157600080fd5b5061026a610a0a565b604051808881526020018781526020018681526020018581526020018481526020018381526020018273ffffffffffffffffffffffffffffffffffffffff1673ffffffffffffffffffffffffffffffffffffffff16815260200197505050505050505060405180910390f35b3480156102e257600080fd5b506102eb610a5a565b005b3480156102f957600080fd5b50610302610a5c565b6040518082815260200191505060405180910390f35b34801561032457600080fd5b506103716004803603604081101561033b57600080fd5b8101908080359060200190929190803573ffffffffffffffffffffffffffffffffffffffff169060200190929190505050610a64565b6040518082815260200191505060405180910390f35b34801561039357600080fd5b506103ea600480360360608110156103aa57600080fd5b810190808035906020019092919080359060200190929190803573ffffffffffffffffffffffffffffffffffffffff169060200190929190505050610b53565b6040518080602001828103825283818151815260200191508051906020019060200280838360005b8381101561042d578082015181840152602081019050610412565b505050509050019250505060405180910390f35b34801561044d57600080fd5b5061047a6004803603602081101561046457600080fd5b8101908080359060200190929190505050610ca3565b6040518080602001828103825283818151815260200191508051906020019060200280838360005b838110156104bd5780820151818401526020810190506104a2565b505050509050019250505060405180910390f35b3480156104dd57600080fd5b506104e6610db5565b005b61059e600480360360208110156104fe57600080fd5b810190808035906020019064010000000081111561051b57600080fd5b82018360208201111561052d57600080fd5b8035906020019184602083028401116401000000008311171561054f57600080fd5b919080806020026020016040519081016040528093929190818152602001838360200280828437600081840152601f19601f8201169050808301925050505050505091929192905050506110ba565b005b3480156105ac57600080fd5b506105b5611417565b604051808215151515815260200191505060405180910390f35b3480156105db57600080fd5b506105e4611529565b6040518082815260200191505060405180910390f35b34801561060657600080fd5b5061060f611535565b6040518082815260200191505060405180910390f35b34801561063157600080fd5b5061063a611560565b6040518082815260200191505060405180910390f35b34801561065c57600080fd5b506106896004803603602081101561067357600080fd5b8101908080359060200190929190505050611565565b6040518080602001828103825283818151815260200191508051906020019060200280838360005b838110156106cc5780820151818401526020810190506106b1565b505050509050019250505060405180910390f35b3480156106ec57600080fd5b506107196004803603602081101561070357600080fd5b81019080803590602001909291905050506115d3565b6040518080602001828103825283818151815260200191508051906020019060200280838360005b8381101561075c578082015181840152602081019050610741565b505050509050019250505060405180910390f35b34801561077c57600080fd5b506107856116e8565b6040518082815260200191505060405180910390f35b3480156107a757600080fd5b506107d4600480360360208110156107be57600080fd5b81019080803590602001909291905050506117a8565b6040518080602001828103825283818151815260200191508051906020019060200280838360005b838110156108175780820151818401526020810190506107fc565b505050509050019250505060405180910390f35b34801561083757600080fd5b506108406118c6565b6040518082815260200191505060405180910390f35b34801561086257600080fd5b5061086b6118cb565b604051808215151515815260200191505060405180910390f35b34801561089157600080fd5b5061089a6118da565b6040518082815260200191505060405180910390f35b3480156108bc57600080fd5b506108c56118df565b6040518082815260200191505060405180910390f35b3480156108e757600080fd5b506108f06118e4565b6040518082815260200191505060405180910390f35b34801561091257600080fd5b5061091b6118e9565b6040518082815260200191505060405180910390f35b34801561093d57600080fd5b5061096a6004803603602081101561095457600080fd5b81019080803590602001909291905050506118ee565b604051808881526020018781526020018681526020018581526020018481526020018381526020018273ffffffffffffffffffffffffffffffffffffffff1673ffffffffffffffffffffffffffffffffffffffff16815260200197505050505050505060405180910390f35b6000600160000154431015905090565b670de0b6b3a764000081565b6000600c54905090565b600060018001544311905090565b60018060000154908060010154908060020154908060060154908060070154908060080154908060090160009054906101000a900473ffffffffffffffffffffffffffffffffffffffff16905087565b565b600043905090565b600080600090505b600b600085815260200190815260200160002060060154811015610b4b578273ffffffffffffffffffffffffffffffffffffffff16600b6000868152602001908152602001600020600401600083815260200190815260200160002060000160009054906101000a900473ffffffffffffffffffffffffffffffffffffffff1673ffffffffffffffffffffffffffffffffffffffff161415610b3e57600b6000858152602001908152602001600020600401600082815260200190815260200160002060010180549050915050610b4d565b8080600101915050610a6c565b505b92915050565b606060008090505b600b600086815260200190815260200160002060060154811015610c9a578273ffffffffffffffffffffffffffffffffffffffff16600b6000878152602001908152602001600020600401600083815260200190815260200160002060000160009054906101000a900473ffffffffffffffffffffffffffffffffffffffff1673ffffffffffffffffffffffffffffffffffffffff161415610c8d57600b600086815260200190815260200160002060040160008281526020019081526020016000206001018481548110610c2c57fe5b90600052602060002001805480602002602001604051908101604052809291908181526020018280548015610c8057602002820191906000526020600020905b815481526020019060010190808311610c6c575b5050505050915050610c9c565b8080600101915050610b5b565b505b9392505050565b6060600b600083815260200190815260200160002060070154604051908082528060200260200182016040528015610cea5781602001602082028038833980820191505090505b50905060008090505b600b600084815260200190815260200160002060070154811015610dac57600b6000848152602001908152602001600020600501600082815260200190815260200160002060009054906101000a900473ffffffffffffffffffffffffffffffffffffffff16828281518110610d6557fe5b602002602001019073ffffffffffffffffffffffffffffffffffffffff16908173ffffffffffffffffffffffffffffffffffffffff16815250508080600101915050610cf3565b50809050919050565b3073ffffffffffffffffffffffffffffffffffffffff1663dfbe7c6d6040518163ffffffff1660e01b815260040160206040518083038186803b158015610dfb57600080fd5b505afa158015610e0f573d6000803e3d6000fd5b505050506040513d6020811015610e2557600080fd5b8101908080519060200190929190505050610e3f57600080fd5b610e47611950565b60016003019080519060200190610e5f929190611f3c565b50610e68611535565b60016008018190555033600160090160006101000a81548173ffffffffffffffffffffffffffffffffffffffff021916908373ffffffffffffffffffffffffffffffffffffffff1602179055506001600b6000600c5481526020019081526020016000206000820154816000015560018201548160010155600282015481600201556003820181600301908054610f00929190611f89565b506006820154816006015560078201548160070155600882015481600801556009820160009054906101000a900473ffffffffffffffffffffffffffffffffffffffff168160090160006101000a81548173ffffffffffffffffffffffffffffffffffffffff021916908373ffffffffffffffffffffffffffffffffffffffff16021790555090505060006001600601541115610ff757610f9f611a86565b3373ffffffffffffffffffffffffffffffffffffffff166108fc67016345785d8a00009081150290604051600060405180830381858888f19350505050158015610fed573d6000803e3d6000fd5b50610ff6611e10565b5b600c600081548092919060010191905055506110136003611ec3565b6001600082015181600001556020820151816001015560408201518160020155606082015181600301908051906020019061104f929190611fdb565b506080820151816006015560a0820151816007015560c0820151816008015560e08201518160090160006101000a81548173ffffffffffffffffffffffffffffffffffffffff021916908373ffffffffffffffffffffffffffffffffffffffff160217905550905050565b670de0b6b3a764000034146110ce57600080fd5b3073ffffffffffffffffffffffffffffffffffffffff16638f1539726040518163ffffffff1660e01b815260040160206040518083038186803b15801561111457600080fd5b505afa158015611128573d6000803e3d6000fd5b505050506040513d602081101561113e57600080fd5b810190808051906020019092919050505061115857600080fd5b600281511461116657600080fd5b60008090505b81518110156111c457600182828151811061118357fe5b6020026020010151101561119657600080fd5b60058282815181106111a457fe5b602002602001015111156111b757600080fd5b808060010191505061116c565b50600080905060008090505b6001600601548110156112df573373ffffffffffffffffffffffffffffffffffffffff166001600401600083815260200190815260200160002060000160009054906101000a900473ffffffffffffffffffffffffffffffffffffffff1673ffffffffffffffffffffffffffffffffffffffff1614156112d257600360016004016000838152602001908152602001600020600101805490501061127357600080fd5b600160040160008281526020019081526020016000206001018390806001815401808255809150509060018203906000526020600020016000909192909190915090805190602001906112c7929190611f3c565b5050600191506112df565b80806001019150506111d0565b5080611413576032600160060154106112f757600080fd5b6060600160405190808252806020026020018201604052801561132e57816020015b60608152602001906001900390816113195790505b509050828160008151811061133f57fe5b6020026020010181905250611352612028565b60405180604001604052803373ffffffffffffffffffffffffffffffffffffffff16815260200183815250905080600160040160006001600601600081548092919060010191905055815260200190815260200160002060008201518160000160006101000a81548173ffffffffffffffffffffffffffffffffffffffff021916908373ffffffffffffffffffffffffffffffffffffffff160217905550602082015181600101908051906020019061140c929190612058565b5090505050505b5050565b60003073ffffffffffffffffffffffffffffffffffffffff1663197b29c86040518163ffffffff1660e01b815260040160206040518083038186803b15801561145f57600080fd5b505afa158015611473573d6000803e3d6000fd5b505050506040513d602081101561148957600080fd5b8101908080519060200190929190505050801561152457503073ffffffffffffffffffffffffffffffffffffffff16633f5054256040518163ffffffff1660e01b815260040160206040518083038186803b1580156114e757600080fd5b505afa1580156114fb573d6000803e3d6000fd5b505050506040513d602081101561151157600080fd5b8101908080519060200190929190505050155b905090565b67016345785d8a000081565b600067016345785d8a000047106115585767016345785d8a00004703905061155d565b600090505b90565b600381565b6060600b60008381526020019081526020016000206003018054806020026020016040519081016040528092919081815260200182805480156115c757602002820191906000526020600020905b8154815260200190600101908083116115b3575b50505050509050919050565b6060600b60008381526020019081526020016000206006015460405190808252806020026020018201604052801561161a5781602001602082028038833980820191505090505b50905060008090505b600b6000848152602001908152602001600020600601548110156116df57600b6000848152602001908152602001600020600401600082815260200190815260200160002060000160009054906101000a900473ffffffffffffffffffffffffffffffffffffffff1682828151811061169857fe5b602002602001019073ffffffffffffffffffffffffffffffffffffffff16908173ffffffffffffffffffffffffffffffffffffffff16815250508080600101915050611623565b50809050919050565b6000806000905060008090505b6001600601548110156117a0573373ffffffffffffffffffffffffffffffffffffffff166001600401600083815260200190815260200160002060000160009054906101000a900473ffffffffffffffffffffffffffffffffffffffff1673ffffffffffffffffffffffffffffffffffffffff16141561179357600160040160008281526020019081526020016000206001018054905091506117a0565b80806001019150506116f5565b508091505090565b60608060008090505b6001600601548110156118bc573373ffffffffffffffffffffffffffffffffffffffff166001600401600083815260200190815260200160002060000160009054906101000a900473ffffffffffffffffffffffffffffffffffffffff1673ffffffffffffffffffffffffffffffffffffffff1614156118af5760016004016000828152602001908152602001600020600101848154811061184f57fe5b906000526020600020018054806020026020016040519081016040528092919081815260200182805480156118a357602002820191906000526020600020905b81548152602001906001019080831161188f575b505050505091506118bc565b80806001019150506117b1565b5080915050919050565b600181565b60006001600201544311905090565b603281565b600381565b600281565b600581565b600b6020528060005260406000206000915090508060000154908060010154908060020154908060060154908060070154908060080154908060090160009054906101000a900473ffffffffffffffffffffffffffffffffffffffff16905087565b606060026040519080825280602002602001820160405280156119825781602001602082028038833980820191505090505b50905060008090505b6002811015611a7f576000809054906101000a900473ffffffffffffffffffffffffffffffffffffffff1673ffffffffffffffffffffffffffffffffffffffff16634ca7d0446001600584600160020154036040518463ffffffff1660e01b815260040180848152602001838152602001828152602001935050505060206040518083038186803b158015611a1f57600080fd5b505afa158015611a33573d6000803e3d6000fd5b505050506040513d6020811015611a4957600080fd5b8101908080519060200190929190505050828281518110611a6657fe5b602002602001018181525050808060010191505061198b565b5080905090565b60008090505b600160060154811015611e0d5760008090505b6001600401600083815260200190815260200160002060010180549050811015611d3f5760006001905060008090505b600160030180549050811015611bbc57600080905060008090505b600160040160008781526020019081526020016000206001018581548110611b0e57fe5b9060005260206000200180549050811015611b9e5760016003018381548110611b3357fe5b9060005260206000200154600160040160008881526020019081526020016000206001018681548110611b6257fe5b906000526020600020018281548110611b7757fe5b90600052602060002001541415611b915760019150611b9e565b8080600101915050611aea565b5080611bae576000925050611bbc565b508080600101915050611acf565b508015611d31576001600401600084815260200190815260200160002060000160009054906101000a900473ffffffffffffffffffffffffffffffffffffffff16600160050160006001600701600081548092919060010191905055815260200190815260200160002060006101000a81548173ffffffffffffffffffffffffffffffffffffffff021916908373ffffffffffffffffffffffffffffffffffffffff1602179055506001600401600084815260200190815260200160002060000160009054906101000a900473ffffffffffffffffffffffffffffffffffffffff16600b6000600c5481526020019081526020016000206005016000600b6000600c548152602001908152602001600020600701600081548092919060010191905055815260200190815260200160002060006101000a81548173ffffffffffffffffffffffffffffffffffffffff021916908373ffffffffffffffffffffffffffffffffffffffff16021790555050611d3f565b508080600101915050611a9f565b5060016004016000828152602001908152602001600020600b6000600c54815260200190815260200160002060040160008381526020019081526020016000206000820160009054906101000a900473ffffffffffffffffffffffffffffffffffffffff168160000160006101000a81548173ffffffffffffffffffffffffffffffffffffffff021916908373ffffffffffffffffffffffffffffffffffffffff1602179055506001820181600101908054611dfc9291906120b8565b509050508080600101915050611a8c565b50565b60008090505b600160070154811015611ec0576001600501600082815260200190815260200160002060009054906101000a900473ffffffffffffffffffffffffffffffffffffffff1673ffffffffffffffffffffffffffffffffffffffff166108fc60016007015460016008015481611e8657fe5b049081150290604051600060405180830381858888f19350505050158015611eb2573d6000803e3d6000fd5b508080600101915050611e16565b50565b611ecb612117565b6060611ed5612117565b60405180610100016040528043815260200185430181526020016002864301018152602001838152602001600081526020016000815260200160008152602001600073ffffffffffffffffffffffffffffffffffffffff1681525090508092505050919050565b828054828255906000526020600020908101928215611f78579160200282015b82811115611f77578251825591602001919060010190611f5c565b5b509050611f859190612172565b5090565b828054828255906000526020600020908101928215611fca5760005260206000209182015b82811115611fc9578254825591600101919060010190611fae565b5b509050611fd79190612172565b5090565b828054828255906000526020600020908101928215612017579160200282015b82811115612016578251825591602001919060010190611ffb565b5b5090506120249190612172565b5090565b6040518060400160405280600073ffffffffffffffffffffffffffffffffffffffff168152602001606081525090565b8280548282559060005260206000209081019282156120a7579160200282015b828111156120a6578251829080519060200190612096929190611fdb565b5091602001919060010190612078565b5b5090506120b49190612197565b5090565b8280548282559060005260206000209081019282156121065760005260206000209182015b828111156121055782829080546120f5929190611f89565b50916001019190600101906120dd565b5b5090506121139190612197565b5090565b60405180610100016040528060008152602001600081526020016000815260200160608152602001600081526020016000815260200160008152602001600073ffffffffffffffffffffffffffffffffffffffff1681525090565b61219491905b80821115612190576000816000905550600101612178565b5090565b90565b6121c091905b808211156121bc57600081816121b391906121c3565b5060010161219d565b5090565b90565b50805460008255906000526020600020908101906121e19190612172565b5056fea265627a7a72315820f804ad6c047f4f146a3562b0d89cec5672635eabd0a62999841cbf23bf0adfe864736f6c63430005100032608060405234801561001057600080fd5b5060df8061001f6000396000f3fe6080604052348015600f57600080fd5b506004361060285760003560e01c80634ca7d04414602d575b600080fd5b606a60048036036060811015604157600080fd5b810190808035906020019092919080359060200190929190803590602001909291905050506080565b6040518082815260200191505060405180910390f35b6000814311608d57600080fd5b83600185850301834060001c81609f57fe5b06019050939250505056fea265627a7a72315820532b5bb75a258cd62ef27c407f36dea151d7aa63006b443598a704ae950fab0a64736f6c63430005100032",
  "source": "pragma solidity ^0.5.0;\n\nimport \"./RandomNumberOracle.sol\";\n\ncontract Lottery {\n\n    // /////////////////////////////////////////////////////////////////\n    // structs\n    // /////////////////////////////////////////////////////////////////\n\n    struct Game {\n        uint256 startBlock;\n        uint256 endBlock;\n        uint256 drawBlock;\n\n        uint256[] luckyNumbers;\n\n        mapping (uint256 => Participant) participants;\n        mapping (uint256 => address payable) winners;\n\n        // keep track of number of participants and winners to iterate\n        uint256 numberOfParticipants;\n        uint256 numberOfWinners;\n\n        // keep track of jackpot\n        uint256 jackpot;\n\n        // keep track of lottery resolver\n        address resolver;\n    }\n\n    struct Participant {\n        address payable addr;\n        uint256[][] tickets;\n    }\n\n\n    // /////////////////////////////////////////////////////////////////\n    // constants\n    // /////////////////////////////////////////////////////////////////\n\n    // defines the number of blocks one game is open for participants to buy tickets\n    uint256 public constant GAME_LENGTH = 3;\n    // defines the maximal number of tickets a user can buy. This is necessary in order to limit the amount of gas that is used for the automatic payout function at the end of a game. If a game has too many tickets, this transaction costs too much gas to be accepted.\n    uint256 public constant MAX_AMOUNT_TICKETS = 3;\n    // defines the number of participants in one game. This is necessary for the same reason as MAX_AMOUNT_TICKETS.\n    uint256 public constant MAX_PARTICIPANTS = 50;\n    // defines the highest number one can buy in a game (including this number)\n    uint256 public constant MAX_NUMBER = 5;\n    // defines the smallest number one can buy in a game (inlcuding this number)\n    uint256 public constant MIN_NUMBER = 1;\n    // defines how many numbers must be submitted per ticket and therefore, it also defines how many block are in the drawing phase. This is due to the fact that every block in the drawing phase is used as the seed for one random number.\n    uint256 public constant NUMBERS_PER_TICKET = 2;\n    // defines the refund amount to the address that evaluates the current game and starts a new one.\n    uint256 public constant REFUND_AMOUNT = 0.1 ether;\n    // defines the price for one ticket\n    uint256 public constant TICKET_PRICE = 1 ether;\n\n\n    // /////////////////////////////////////////////////////////////////\n    // variables\n    // /////////////////////////////////////////////////////////////////\n\n    RandomNumberOracle oracle;\n\n    Game public currentGame;\n\n    mapping (uint256 => Game) public finishedGames;\n    uint256 numberOfGames = 0;\n\n\n    // /////////////////////////////////////////////////////////////////\n    // constructor\n    // /////////////////////////////////////////////////////////////////\n\n    constructor() public {\n        currentGame = createNewGame(GAME_LENGTH);\n        oracle = new RandomNumberOracle();\n    }\n\n\n    // /////////////////////////////////////////////////////////////////\n    // public functions\n    // /////////////////////////////////////////////////////////////////\n\n    // /////////////////////////////////\n    // core functions\n    // /////////////////////////////////\n    \n    function buyTicket(uint256[] memory _numbers) public payable {\n        // verify that enough ether was sent\n        require(msg.value == TICKET_PRICE);\n        \n        // verify that the current game is ongoing\n        require(this.isGameOngoing());\n        \n        // verify that enough numbers are given\n        require(_numbers.length == NUMBERS_PER_TICKET);\n        \n        // verify that the numbers are not too small or too large\n        for (uint256 i=0; i<_numbers.length; i++) {\n            require(_numbers[i] >= MIN_NUMBER);\n            require(_numbers[i] <= MAX_NUMBER);\n        }\n        \n        // record the sender's address and the received numbers\n        bool foundParticipant = false;\n        for (uint256 i=0; i<currentGame.numberOfParticipants; i++) {\n            // add number to existing participant\n            if (currentGame.participants[i].addr == msg.sender) {\n                // verify that buyer has not bought too many tickets\n                require(currentGame.participants[i].tickets.length < MAX_AMOUNT_TICKETS);\n                \n                currentGame.participants[i].tickets.push(_numbers);\n                foundParticipant = true;\n                break;\n            }\n        }\n        \n        if (!foundParticipant) {\n            // verify that the number of participants does not exceed the participant limit\n            require(currentGame.numberOfParticipants < MAX_PARTICIPANTS);\n            \n            // create new participant\n            uint256[][] memory tickets = new uint256[][](1);\n            tickets[0] = _numbers;\n            \n            Participant memory p = Participant({\n                addr: msg.sender,\n                tickets: tickets\n            });\n            \n            currentGame.participants[currentGame.numberOfParticipants++] = p;\n        }\n    }\n    \n    function endGame() public {\n        // verify that game has ended and numbers are drawable\n        require(this.isNumberDrawable());\n        \n        // draw lucky numbers via oracle SC\n        currentGame.luckyNumbers = getLuckyNumbers();\n        \n        // keep track of jackpot\n        currentGame.jackpot = getJackpot();\n\n        // keep track of lottery resolver\n        currentGame.resolver = msg.sender;\n\n        // archive all the statically allocated values\n        finishedGames[numberOfGames] = currentGame;\n        \n        if (currentGame.numberOfParticipants > 0) {\n            setWinners();\n        \n            // refund caller\n            msg.sender.transfer(REFUND_AMOUNT);\n        \n            payoutWinners();\n        }\n\n        numberOfGames++;\n        \n        // start new game\n        currentGame = createNewGame(GAME_LENGTH);\n    }\n\n    // /////////////////////////////////\n    // getter functions (current game)\n    // /////////////////////////////////\n    \n    // returns the number of tickets in the current game associated with the sender's address\n    function getMyTicketCountOfCurrentGame() public view returns(uint256) {\n        uint256 numberOfTickets = 0;\n\n        for (uint256 i=0; i<currentGame.numberOfParticipants; i++) {\n            if (currentGame.participants[i].addr == msg.sender) {\n                numberOfTickets = currentGame.participants[i].tickets.length;\n                break;\n            }\n        }\n        return numberOfTickets;\n    }\n    \n    // returns the numbers of a ticket in the current game associated with the sender's address\n    function getMyTicketNumbersOfCurrentGame(uint256 _ticketIndex) public view returns(uint256[] memory) {\n        uint256[] memory numbers;\n\n        for (uint256 i=0; i<currentGame.numberOfParticipants; i++) {\n            if (currentGame.participants[i].addr == msg.sender) {\n                numbers = currentGame.participants[i].tickets[_ticketIndex];\n                break;\n            }\n        }\n        return numbers;\n    }\n\n    // return the winnable amount in the ongoing game\n    function getJackpot() public view returns(uint256) {\n        if (address(this).balance >= REFUND_AMOUNT) {\n            return address(this).balance - REFUND_AMOUNT;\n        } else {\n            return 0;\n        }\n    }\n\n    // /////////////////////////////////\n    // getter functions (finished games)\n    // /////////////////////////////////\n\n    function getNumberOfFinishedGames() public view returns(uint256) {\n        return numberOfGames;\n    }\n\n    // get all participants in a specific (finished) game\n    function getParticipants(uint256 _gameIndex) public view returns(address[] memory _participantsAddr){\n        _participantsAddr = new address[](finishedGames[_gameIndex].numberOfParticipants);\n\n        for(uint256 i = 0; i < finishedGames[_gameIndex].numberOfParticipants; i++){\n            _participantsAddr[i] = finishedGames[_gameIndex].participants[i].addr;\n        }\n\n        return _participantsAddr;\n    }\n\n    // get the winners of a specific (finished) game\n    function getWinners(uint256 _gameIndex) public view returns(address[] memory _winners){\n        _winners = new address[](finishedGames[_gameIndex].numberOfWinners);\n\n        for(uint256 i = 0; i < finishedGames[_gameIndex].numberOfWinners; i++){\n            _winners[i] = finishedGames[_gameIndex].winners[i];\n        }\n\n        return _winners;\n    }\n\n    // get the number of tickets of an address in a specific (finished) game\n    function getTicketCount(uint256 _gameIndex, address _address) public view returns(uint256) {\n        for(uint256 i = 0; i < finishedGames[_gameIndex].numberOfParticipants; i++){\n            if(finishedGames[_gameIndex].participants[i].addr == _address){\n               return finishedGames[_gameIndex].participants[i].tickets.length;\n            }\n        }\n    }\n\n    // get the numbers of a ticket of an address in a specific (finished) game\n    function getTicketNumbers(uint256 _gameIndex, uint256 _ticketIndex, address _address) public view returns(uint256[] memory){\n        for(uint256 i = 0; i < finishedGames[_gameIndex].numberOfParticipants; i++){\n            if(finishedGames[_gameIndex].participants[i].addr == _address){\n               return finishedGames[_gameIndex].participants[i].tickets[_ticketIndex];\n            }\n        }\n    }\n\n    // get luck numbers of a specific (finished) game\n    function getLuckyNumbers(uint256 _gameIndex) public view returns(uint256[] memory){\n        return finishedGames[_gameIndex].luckyNumbers;\n    }\n\n    // /////////////////////////////////\n    // misc\n    // /////////////////////////////////\n\n    function getCurrentBlock() public view returns(uint256) {\n        return block.number;\n    }\n\n    // returns whether the current game has started\n    function hasGameStarted() public view returns(bool) {\n        return block.number >= currentGame.startBlock;\n    }\n\n    // returns whether the current game has ended\n    function hasGameEnded() public view returns(bool) {\n        return block.number > currentGame.endBlock;\n    }\n\n    // returns whether the current game is ongoing\n    function isGameOngoing() public view returns(bool) {\n        return this.hasGameStarted() && !this.hasGameEnded();\n    }\n\n    // returns whether the game is ready to draw numbers\n    function isNumberDrawable() public view returns(bool) {\n        return block.number > currentGame.drawBlock;\n    }\n\n    // This function is only used to force ganache to add a block and thus controll the speed of the blockchain manually\n    // TODO: remove as soon as it is not needed anymore\n    function skipBlock() public pure {}\n\n\n    // /////////////////////////////////////////////////////////////////\n    // private functions\n    // /////////////////////////////////////////////////////////////////\n\n    function createNewGame(uint256 _gameLength) private view returns(Game memory) {\n        uint256[] memory luckyNumbers;\n        Game memory newGame = Game({\n            startBlock: block.number,\n            endBlock: block.number + _gameLength,\n            drawBlock: block.number + _gameLength + NUMBERS_PER_TICKET,\n            luckyNumbers: luckyNumbers,\n            numberOfParticipants: 0,\n            numberOfWinners: 0,\n            jackpot: 0,\n            resolver: address(0)\n        });\n\n        return newGame;\n    }\n\n    function setWinners() private{\n        for (uint256 i=0; i<currentGame.numberOfParticipants; i++) { // participant i\n            for (uint256 j=0; j<currentGame.participants[i].tickets.length; j++) { // ticket j\n                // TODO: this is very inefficient (maybe use mappings to determine whether a user has all lucky numbers within one ticket)\n                bool isWinnerTicket = true;\n                for (uint256 k=0; k<currentGame.luckyNumbers.length; k++) { // lucky number k\n                    \n                    // check if a lucky number is present in this ticket\n                    bool isNumberInTicket = false;\n                    for (uint256 l=0; l<currentGame.participants[i].tickets[j].length; l++) { // number l of ticket j\n                        if (currentGame.participants[i].tickets[j][l] == currentGame.luckyNumbers[k]) {\n                            // lucky number is present in this tickets\n                            // => no need to look at the other numbers of this ticket for this lucky number\n                            isNumberInTicket = true;\n                            break;\n                        }\n                    }\n                    \n                    // if the lucky number is not present in the ticket, this ticket is not a winner ticket\n                    // => no need to check the remaining lucky numbers\n                    if (!isNumberInTicket) {\n                        isWinnerTicket = false;\n                        break;\n                    }\n                    \n                }\n                \n                if (isWinnerTicket) {\n                    // add participant as winner\n                    currentGame.winners[currentGame.numberOfWinners++] = currentGame.participants[i].addr;\n\n                    // archiving winners\n                    finishedGames[numberOfGames].winners[finishedGames[numberOfGames].numberOfWinners++] = currentGame.participants[i].addr;\n                    \n                    // no need to search for a second winner ticket\n                    break;\n                }\n            }\n            // archiving participants\n            finishedGames[numberOfGames].participants[i] = currentGame.participants[i];\n        }\n    }\n\n    function payoutWinners() private{\n        for (uint256 i=0; i<currentGame.numberOfWinners; i++) {\n            currentGame.winners[i].transfer(currentGame.jackpot / currentGame.numberOfWinners);\n        }\n    }\n\n    function getLuckyNumbers() private view returns(uint256[] memory luckyNumbers){\n        luckyNumbers = new uint256[](NUMBERS_PER_TICKET);\n        for (uint256 i=0; i<NUMBERS_PER_TICKET; i++) {\n            luckyNumbers[i] = oracle.getRandomNumber(MIN_NUMBER, MAX_NUMBER, currentGame.drawBlock - i);\n        }\n        return luckyNumbers;\n    }\n}",
  "sourcePath": "/Users/nlwsoft/Desktop/lottery-dapp-master/contracts/Lottery.sol",
  "compiler": {
    "name": "solc",
    "version": "0.5.16+commit.9c3226ce.Emscripten.clang"
  },
  "schemaVersion": "3.4.3",
  "updatedAt": "2021-11-30T01:43:10.198Z",
  "networkType": "ethereum",
  "devdoc": {
    "methods": {}
  },
  "userdoc": {
    "methods": {}
  }
}