{
  "contractName": "RandomNumberOracle",
  "abi": [
    {
      "constant": true,
      "inputs": [
        {
          "internalType": "uint256",
          "name": "min",
          "type": "uint256"
        },
        {
          "internalType": "uint256",
          "name": "max",
          "type": "uint256"
        },
        {
          "internalType": "uint256",
          "name": "blockNumber",
          "type": "uint256"
        }
      ],
      "name": "getRandomNumber",
      "outputs": [
        {
          "internalType": "uint256",
          "name": "",
          "type": "uint256"
        }
      ],
      "payable": false,
      "stateMutability": "view",
      "type": "function"
    }
  ],
  "bytecode": "0x608060405234801561001057600080fd5b5060dc8061001f6000396000f3fe6080604052348015600f57600080fd5b50600436106044577c010000000000000000000000000000000000000000000000000000000060003504634ca7d04481146049575b600080fd5b606f60048036036060811015605d57600080fd5b50803590602081013590604001356081565b60408051918252519081900360200190f35b6000814311608e57600080fd5b83600181850301834081609d57fe5b060194935050505056fea265627a7a72315820b33431f7d3c62f9674776d4d45c6faf6367eac4c29c1a0dfc2e41a60e4a3fc4b64736f6c63430005110032",
  "source": "pragma solidity ^0.5.0;\n\ncontract RandomNumberOracle{\n    // @notice This function can be used to generate a random number based on the specific future blockhash\n    // @dev The miner of the defined block number has the possiblity to withhold a mined block in order to manipulate the randomness.\n    // @param min The lower boundary of the random range (min is part of the range)\n    // @param max The upper boundary of the random range (max is part of the range)\n    // @param blockNumber The block number which is used to create the random numbers\n    // @return A random integer greater or equal to min and smaller or equal to max\n    function getRandomNumber(uint256 min, uint256 max, uint256 blockNumber) public view returns(uint256){\n        require(block.number > blockNumber);\n        return (uint256(blockhash(blockNumber)) % (max - min + 1)) + min;\n    }\n}",
  "sourcePath": "/Users/nlwsoft/Desktop/megaLottery_BackEnd/contracts/RandomNumberOracle.sol",
  "compiler": {
    "name": "solc",
    "version": "0.5.17+commit.d19bba13.Emscripten.clang"
  },
  "schemaVersion": "3.4.3",
  "updatedAt": "2021-11-30T07:50:21.478Z",
  "devdoc": {
    "methods": {}
  },
  "userdoc": {
    "methods": {}
  }
}